:100000000C9434000C9451000C9451000C94510049
:100010000C9451000C9451000C9451000C9451001C
:100020000C9451000C9451000C9451000C9451000C
:100030000C9451000C9451000C9451000C945100FC
:100040000C9451000C9451000C9451000C945100EC
:100050000C9451000C9451000C9451000C945100DC
:100060000C9451000C94510011241FBECFEFD8E026
:10007000DEBFCDBF11E0A0E0B1E0E4E6F5E002C0F4
:1000800005900D92AA30B107D9F711E0AAE0B1E0CE
:1000900001C01D92AE31B107E1F70E945A000C94E5
:1000A000B0020C940000E1E8F0E08081846080837D
:1000B00016BC08952F923F924F925F926F927F925B
:1000C0008F929F92AF92BF92CF92DF92EF92FF9268
:1000D0000F931F93CF93DF9387EF8AB98FE387B98D
:1000E000E4E2F0E080818061808380818E7F808384
:1000F0000E94530081E080931C0180931D0103E264
:1001000010E00F2EF5E26F2E7724F02D0F2EF0ED7C
:100110004F2EF7E05F2EF02DC0E9D1E00F2EF7E172
:100120002F2E3324F02D41E00F2EF8E2EF2EFF2486
:10013000F02D0F2EF0E0CF2EF1E0DF2EF02D0F2E60
:10014000FBE2AF2EBB24F02D0F2EF0EA8F2EFFE046
:100150009F2EF02DF801808185FDD1C180911C0179
:10016000813009F0CCC19201CE010197F1F7215005
:100170003040D1F710921C013BC080911C018823B4
:1001800059F49201CE010197F1F721503040D1F797
:1001900040931C0140931D0180911C01813001F5A9
:1001A000F801808183FDB0C180911D01813009F08B
:1001B000ABC19201CE010197F1F721503040D1F748
:1001C00010921D010DC080911D01882349F49201F8
:1001D000CE010197F1F721503040D1F740931D0136
:1001E00080911C01882321F0813009F000C174C086
:1001F000E4E8F0E0808191818352944FB0F08091E7
:100200000E0190910F01019690930F0180930E01C2
:1002100080911201909113010196909313018093A4
:100220001201E4E8F0E01182108280910E019091B9
:100230000F01CC97D4F0109213011092120110927A
:100240000F0110920E018091100190911101019601
:10025000909311018093100180910A0190910B01FC
:10026000019690930B0180930A0180910A0190916D
:100270000B01CC976CF010920B0110920A01809147
:100280000C0190910D01019690930D0180930C014A
:1002900080910C0190910D01489724F010920D016E
:1002A00010920C018091100190911101029741F47C
:1002B000F3018081806180831092110110921001FE
:1002C0008091120190911301059709F090C0F301FC
:1002D00080818F7E80838BC0F30180818F7E8083BD
:1002E00080911D01882321F0813009F080C040C039
:1002F000F801808181FD1CC09201CE010197F1F7C8
:1003000021503040D1F780910C0190910D01019660
:1003100090930D0180930C0180910C0190910D013F
:1003200048970CF464C010920D0110920C015FC04C
:10033000F801808180FD5BC09201CE010197F1F749
:1003400021503040D1F780910C0190910D0101971F
:1003500090930D0180930C0180910C0190910D01FF
:1003600099230CF044C030920D0120920C013FC043
:10037000F801808181FD1BC09201CE010197F1F748
:1003800021503040D1F780910A0190910B010196E4
:1003900090930B0180930A0180910A0190910B01C7
:1003A000CC972CF110920B0110920A0120C0F80199
:1003B000808180FD1CC09201CE010197F1F7215090
:1003C0003040D1F780910A0190910B0101979093F1
:1003D0000B0180930A0180910A0190910B019923EE
:1003E00034F48BE390E090930B0180930A018091A9
:1003F0000C0190910D019093190180931801809147
:100400001801909119016AE070E00E948902862F1C
:10041000972F90931B0180931A01F70140838091DD
:100420001A0190911B01F601E80FF91F8081F50177
:100430008083C4010197F1F780911801909119010F
:100440006AE070E00E948902282F392F30931B0147
:1004500020931A0122E0F701208380911A019091E4
:100460001B01F601E80FF91F8081F5018083C401AB
:100470000197F1F780910A0190910B01909315017A
:100480008093140180911401909115016AE070E04D
:100490000E948902862F972F90931701809316014F
:1004A00024E0F70120838091160190911701F60155
:1004B000E80FF91F8081F5018083C4010197F1F7EE
:1004C00080911401909115016AE070E00E94890208
:1004D000282F392F309317012093160128E0F701B8
:1004E00020838091160190911701F601E80FF91F02
:1004F0008081F5018083C4010197F1F72BCEF801CB
:10050000808185FD49CE39CEF801808183FD68CE9A
:100510005ACE97FB092E07260AD077FD04D00CD0BF
:1005200006D000201AF4709561957F4F0895F6F774
:10053000909581959F4F0895AA1BBB1B51E107C061
:10054000AA1FBB1FA617B70710F0A61BB70B881F63
:10055000991F5A95A9F780959095BC01CD010895F2
:04056000F894FFCF3D
:0A05640080F14460312202F0002013
:00000001FF
