S018000041737369676E6D656E74205665725F322E7372656315
S11300000C9434000C9451000C9451000C94510045
S11300100C9451000C9451000C9451000C94510018
S11300200C9451000C9451000C9451000C94510008
S11300300C9451000C9451000C9451000C945100F8
S11300400C9451000C9451000C9451000C945100E8
S11300500C9451000C9451000C9451000C945100D8
S11300600C9451000C94510011241FBECFEFD8E022
S1130070DEBFCDBF11E0A0E0B1E0E0EEFAE002C0E7
S113008005900D92AA32B107D9F711E0AAE2B1E0C6
S113009001C01D92A333B107E1F70E94F1010C9452
S11300A06E050C9400009B01AC011092B90060E451
S11300B072E48FE090E00E940705205130404040F8
S11300C0504056954795379527952093B800089545
S11300D0982FECEBF0E0108284EA808380818823FF
S11300E0ECF78091B900887F883021F0803111F0DD
S11300F08AE00895892F880F862B8093BB0084E8BB
S11301008093BC00ECEBF0E080818823ECF78091D5
S1130110B900887F883121F0803411F084E108959A
S113012080E008958093BB0084E88093BC00ECEBEE
S1130130F0E080818823ECF78091B900887F8832D1
S113014011F480E0089585E1089584E98093BC006A
S113015008950F931F93062F60E00E946800182FE4
S1130160882341F4802F0E949200182F882311F4D1
S11301700E94A500812F1F910F910895FC01838196
S1130180682B80810E94A9000895FF920F931F930A
S11301908C01F62E64600E94BE0081E08A95F1F71E
S11301A08BEFF822C8016F2D0E94BE0080E18A9572
S11301B0F1F71F910F91FF900895FF920F931F93F2
S11301C08C01F62E0E94BE00C8016F2D0E94C5004E
S11301D01F910F91FF900895EF92FF920F931F9339
S11301E07C01162F042F862F807F642F682BC70174
S11301F00E94DD001295107F102BC701612F0E9411
S1130200DD001F910F91FF90EF90089540E00E9450
S1130210EC000895FC016581862F846085836C6001
S1130220CF010E940601089562E00E94060184EF56
S113023091E00197F1F70895DF93CF9300D000D0B8
S1130240CDB7DEB7198220E42A8324E12B8324E589
S11302502C83FE01E60FF11D2181420F4068642FBB
S11302600E9406010F900F900F900F90CF91DF9195
S113027008950F931F938C0161E00E94060184EF9F
S113028091E00197F1F7C80160E040E00E941C0191
S11302901F910F9108950F931F93CF93DF938C01B8
S11302A0EB016881662341F0C80141E00E94EC0043
S11302B0219668816623C1F7DF91CF911F910F9139
S11302C00895FC0188E08383CF0160E00E94BE00B2
S11302D00895EF92FF920F931F93DF93CF93CDB7BF
S11302E0DEB72E970FB6F894DEBF0FBECDBF88875A
S11302F069874A871B862C8784E08D8782E08E87F6
S1130300423018F0822F88608C87222329F04130F4
S113031019F48C8584608C8788EA91E60197F1F75B
S1130320CE01089660E00E94BE0020E137E249E178
S113033050E0CA010197F1F721503040D1F78E0106
S1130340085F1F4FC80160E30E94BE000F2EF5E650
S1130350EF2EF4E0FF2EF02DC7010197F1F7C8014D
S113036060E30E94DD00C7010197F1F7C80160E373
S11303700E94DD0082E38A95F1F7C80160E20E94E1
S1130380DD006C856062C8010E940601C8010E94FC
S11303900A01C8010E9439016E856460C8010E9487
S11303A00601C8010E941401DE011196F80187E0DC
S11303B001900D928150E1F729813A814B815C8152
S11303C06D817E818F8190E02E960FB6F894DEBF0A
S11303D00FBECDBFCF91DF911F910F91FF90EF9092
S11303E008952F923F924F925F926F927F928F92D5
S11303F09F92AF92BF92CF92DF92EF92FF920F93B0
S11304001F93DF93CF93CDB7DEB7A8970FB6F894B9
S1130410DEBF0FBECDBFE4E2F0E080818160808367
S113042060EA76E881E090E00E9453008FE360E1A7
S113043042E020E00E9469012AA33BA34CA35DA3F0
S11304406EA37FA388A7DE015096FE01B29687E0D3
S113045001900D928150E1F7CE0140960E94610116
S1130460CE01479665E046E027E00E94280481E03B
S113047080932A010F2EF3E2CF2EDD24F02DEE24FB
S1130480FF246894E4F8EC0EFD1E0F2EFDE08F2E81
S1130490F1E09F2EF02D0F2EF9E16F2EF1E07F2E6B
S11304A0F02D0F2EF7E14F2E5524F02D4C0E5D1E2E
S11304B00F2EF0E02F2EF1E03F2EF02D0F2EFBE05B
S11304C0AF2EF1E0BF2EF02D09E110E090912A014A
S11304D0F601808185FD77C0913009F074C080E514
S11304E093EC0197F1F710922A010EC0992339F485
S11304F080E593EC0197F1F710922A0105C0992346
S113050019F0913029F74CC0C7010E943901C2018A
S11305100E946204C70160E040E00E941C01C70120
S1130520B1010E944B01C70161E040E00E941C013F
S11305308C8D90E0BE01655F7F4F4AE050E00E94E1
S11305403D05BC01C7010E944B01C701B5010E94D2
S11305504B018B8D90E0BE016A5F7F4F4AE050E013
S11305600E943D05BC01C7010E944B01C701B501B2
S11305700E944B018A8D90E0BE016F5F7F4F4AE07D
S113058050E00E943D05BC01C7010E944B0120E1DF
S113059037E2C8010197F1F721503040D1F796CFE7
S11305A0C70160E040E00E941C01C701B4010E9441
S11305B04B01C70161E040E00E941C01C701B30187
S11305C00E944B0183CFF601808185FD98CF8ECFA9
S11305D00F931F93CF93DF93FC01ABE2B0E09C91A8
S11305E061E070E09B01028002C0220F331F0A9475
S11305F0E2F7AB01008002C0440F551F0A94E2F7F2
S1130600822F8095842B89238C930AE210E0E801E1
S11306109881822F842B892B018002C0660F771F5B
S11306200A94E2F7862B88838C91282B2C9388EEEE
S113063093E00197F1F7DF91CF911F910F91089506
S1130640EBE2F0E0408121E030E0DC0112960C9016
S113065002C0220F331F0A94E2F72095242320833B
S113066088EE93E00197F1F70895BF92CF92DF925D
S1130670EF92FF920F931F93CF93DF93FC0121E03E
S113068030E0C901008002C0880F991F0A94E2F784
S1130690782FB82EB0947901018002C0EE0CFF1CB3
S11306A00A94E2F760E040E050E0EBE2F0E0CAEFE9
S11306B0D0E00F2EF9E2CF2EDD24F02D01E010E082
S11306C020E030E08081872B8083CE010197F1F711
S11306D080818B218083CE010197F1F7D6018C9123
S11306E090E08E219F21892B61F0D901C801042E4D
S11306F004C0880F991FAA1FBB1F0A94D2F7682B46
S11307000CC0D901C801042E04C0880F991FAA1F68
S1130710BB1F0A94D2F7809568234F5F5F4F483020
S1130720510581F6862FDF91CF911F910F91FF9094
S1130730EF90DF90CF90BF900895EF92FF920F93C8
S11307401F93CF93DF93EC01F42E81E090E00880B7
S113075002C0880F991F0A94E2F7382FE82EE0941C
S1130760A0E0B0E070E0EBE2F0E001E010E04AEF7E
S113077050E0CB010A2E02C0959587950A94E2F7C2
S113078080FF0BC02081C801098002C0880F991F17
S11307900A94E2F7282B20830BC02081C80109802A
S11307A002C0880F991F0A94E2F780958223808300
S11307B0CA010197F1F78081832B8083CA010197D5
S11307C0F1F7FF2091F0A730B10579F4EAE2F0E007
S11307D0208181E090E0098002C0880F991F0A946B
S11307E0E2F78095822380830BC080818E218083F1
S11307F0CA010197F1F71196A830B10509F0B9CFF4
S1130800DF91CF911F910F91FF90EF900895DF92A8
S1130810EF92FF920F931F938C017B01D42E0E94C1
S1130820E8028EEF9FEFE822F922C8016E2D40E026
S11308300E949D03C8016D2D40E00E949D03C801E4
S11308400E9420031F910F91FF90EF90DF90089575
S11308500F931F938C01FC016083418322836EE814
S113086070E040E00E940704C80160E970E040E0E5
S11308700E9407041F910F910895EF92FF920F9326
S11308801F93CF93DF938C017B010E94E802C80180
S11308906FEB41E00E949D03C0E0D0E0C8010E94DC
S11308A03503F70181937F012196C830D105B1F753
S11308B0C8010E942003DF91CF911F910F91FF90F7
S11308C0EF900895EF92FF920F931F937C010BE238
S11308D011E0B8010E943D04F8014191242F2295B2
S11308E02F70822F877090E09C01220F331F880F96
S11308F0991F880F991F880F991F280F391F4F7050
S1130900420FD70113964C9313974081242F2295BD
S11309102F70822F877090E09C01220F331F880F65
S1130920991F880F991F880F991F280F391F4F701F
S1130930420F14964C931497F8014281242F229568
S11309402F70822F837090E09C01220F331F880F39
S1130950991F880F991F880F991F280F391F4F70EF
S1130960420F15964C9315978581877016968C9334
S113097016974381242F22952F70822F837090E045
S11309809C01220F331F880F991F880F991F880F0E
S1130990991F280F391F4F70420F17964C931797C2
S11309A04481242F22952F70822F817090E09C0126
S11309B0220F331F880F991F880F991F880F991FC3
S11309C0280F391F4F70420F18964C9318972681A1
S11309D0422F4F7050E04053584F822F82958F70B2
S11309E090E09C01220F331F880F991F880F991FD5
S11309F0880F991F280F391F420F531F1A965C93B3
S1130A004E9319971F910F91FF90EF900895A1E2D3
S1130A101A2EAA1BBB1BFD010DC0AA1FBB1FEE1F74
S1130A20FF1FA217B307E407F50720F0A21BB30BBF
S1130A30E40BF50B661F771F881F991F1A9469F73B
S1130A4060957095809590959B01AC01BD01CF0197
S1130A500895AA1BBB1B51E107C0AA1FBB1FA61701
S1130A60B70710F0A61BB70B881F991F5A95A9F753
S1130A7080959095BC01CD010895FB019F01E894F8
S1130A804230C4F04532B4F44A3029F497FB1EF4E2
S1130A90909581959F4F642F77270E942905805D4B
S1130AA08A330CF0895D8193CB010097A1F716F48A
S1130AB05DE251931082C9010C945E05DC01FC01D6
S1130AC0672F71917723E1F7329704C07C916D937E
S1130AD070836291AE17BF07C8F30895F894FFCFEF
S1130AE054696D6520436C6F636B003A0048656C14
S1130AF06C6F2055736572210057656C636F6D656B
S10D0B0020546F20436C6F636B00F8
S9030000FC
